:100000000C9434000C9446000C9446000C9446006A
:100010000C9446000C9446000C9446000C94460048
:100020000C9446000C9446000C9446000C94460038
:100030000C9446000C9446000C9446000C94460028
:100040000C9446000C9446000C9446000C94460018
:100050000C9446000C9446000C9446000C94460008
:100060000C9446000C94460011241FBECFEFD4E040
:10007000DEBFCDBF11E0A0E0B1E001C01D92A9300C
:10008000B107E1F70E9426070C9453080C94000076
:10009000982F8091C00085FFFCCF9093C6000895F3
:1000A000282F8091C00085FFFCCF9093C6008091DF
:1000B000C00085FFFCCF2093C60008950F932091C8
:1000C00001013091020140910301509104016091BE
:1000D000050170910601E09107019091080180915E
:1000E000C00085FFFCCF2093C6008E2F08E00E9441
:1000F0005507E82F8091C00085FFFCCF2093C600F4
:100100008E2F08E00E945507E82F8091C00085FFE0
:10011000FCCF2093C6008E2F08E00E945507E82FE1
:100120008091C00085FFFCCF2093C6008E2F08E091
:100130000E945507E82F8091C00085FFFCCF2093D7
:10014000C6008E2F08E00E945507E82F8091C0005E
:1001500085FFFCCF2093C6008E2F08E00E94550734
:10016000E82F8091C00085FFFCCF2093C6008091CE
:10017000C00085FFFCCF8E2F08E00E94550720931A
:10018000C6008091C00085FFFCCF8BED8093C60038
:100190000F9108952F923F924F925F926F927F92AC
:1001A0008F929F92AF92BF92CF92DF92EF92FF9287
:1001B0000F931F93CF93DF938EEF85B980E18A95DC
:1001C000F1F781E0982F9A95F1F7982F9A95F1F72A
:1001D0008A95F1F7F6B0F09481E0F822CC24AA24B5
:1001E000EE24DD24BB249924882451E0652E712C53
:1001F000C1E0D0E041E0242E312C30E1432E5524E3
:100200005394C101062C02C0880F991F0A94E2F78B
:10021000809585B9842D8A95F1F7852D8A95F1F71A
:10022000852D8A95F1F7852D8A95F1F7309962C071
:100230008E010B5F1F4F21E030E040E050E060E0B6
:1002400070E080E090E00E94D4072F0DE1E02F15D0
:1002500008F0E0E03C0DF1E03C1508F0F0E0BE2FC6
:10026000B30FE1E0B31708F0E0E0FE2B4A0DE1E048
:100270004A1508F0E0E0AF2FA40F31E0A41708F012
:1002800030E0E32B5E0D41E05E1508F040E0FE2F0C
:10029000F50F31E0F51708F030E0432B6D0D51E01C
:1002A0006D1508F050E0E42FE60F31E0E61708F096
:1002B00030E0532B7B0D41E07B1508F040E0652FCB
:1002C000670F31E0671708F030E0432B890D51E0EC
:1002D000891508F050E0480F31E0481708F030E089
:1002E000532B890EF22ECB2EAA2EEF2EDE2EB62EFB
:1002F000942E850E329962C08E010C5F1F4F21E053
:1003000030E040E050E060E070E080E090E00E948B
:10031000D4072F0DE1E02F1508F0E0E03C0DF1E0EF
:100320003C1508F0F0E0BE2FB30FE1E0B31708F082
:10033000E0E0FE2B4A0DE1E04A1508F0E0E0AF2FC7
:10034000A40F31E0A41708F030E0E32B5E0D41E08C
:100350005E1508F040E0FE2FF50F31E0F51708F0CC
:1003600030E0432B6D0D51E06D1508F050E0E42FA7
:10037000E60F31E0E61708F030E0532B7B0D41E04B
:100380007B1508F040E0652F670F31E0671708F034
:1003900030E0432B890D51E0891508F050E0480FFB
:1003A00031E0481708F030E0532B890EF22ECB2EA7
:1003B000AA2EEF2EDE2EB62E942E850E339962C015
:1003C0008E010D5F1F4F21E030E040E050E060E023
:1003D00070E080E090E00E94D4072F0DE1E02F153F
:1003E00008F0E0E03C0DF1E03C1508F0F0E0BE2F35
:1003F000B30FE1E0B31708F0E0E0FE2B4A0DE1E0B7
:100400004A1508F0E0E0AF2FA40F31E0A41708F080
:1004100030E0E32B5E0D41E05E1508F040E0FE2F7A
:10042000F50F31E0F51708F030E0432B6D0D51E08A
:100430006D1508F050E0E42FE60F31E0E61708F004
:1004400030E0532B7B0D41E07B1508F040E0652F39
:10045000670F31E0671708F030E0432B890D51E05A
:10046000891508F050E0480F31E0481708F030E0F7
:10047000532B890EF22ECB2EAA2EEF2EDE2EB62E69
:10048000942E850E349962C08E010E5F1F4F21E0BD
:1004900030E040E050E060E070E080E090E00E94FA
:1004A000D4072F0DE1E02F1508F0E0E03C0DF1E05E
:1004B0003C1508F0F0E0BE2FB30FE1E0B31708F0F1
:1004C000E0E0FE2B4A0DE1E04A1508F0E0E0AF2F36
:1004D000A40F31E0A41708F030E0E32B5E0D41E0FB
:1004E0005E1508F040E0FE2FF50F31E0F51708F03B
:1004F00030E0432B6D0D51E06D1508F050E0E42F16
:10050000E60F31E0E61708F030E0532B7B0D41E0B9
:100510007B1508F040E0652F670F31E0671708F0A2
:1005200030E0432B890D51E0891508F050E0480F69
:1005300031E0481708F030E0532B890EF22ECB2E15
:10054000AA2EEF2EDE2EB62E942E850E359962C081
:100550008E010F5F1F4F21E030E040E050E060E08F
:1005600070E080E090E00E94D4072F0DE1E02F15AD
:1005700008F0E0E03C0DF1E03C1508F0F0E0BE2FA3
:10058000B30FE1E0B31708F0E0E0FE2B4A0DE1E025
:100590004A1508F0E0E0AF2FA40F31E0A41708F0EF
:1005A00030E0E32B5E0D41E05E1508F040E0FE2FE9
:1005B000F50F31E0F51708F030E0432B6D0D51E0F9
:1005C0006D1508F050E0E42FE60F31E0E61708F073
:1005D00030E0532B7B0D41E07B1508F040E0652FA8
:1005E000670F31E0671708F030E0432B890D51E0C9
:1005F000891508F050E0480F31E0481708F030E066
:10060000532B890EF22ECB2EAA2EEF2EDE2EB62ED7
:10061000942E850E319960C021E030E040E050E03A
:1006200060E070E080E090E00C2F0E94D4072F0D76
:10063000E1E02F1508F0E0E03C0DF1E03C1508F09A
:10064000F0E0BE2FB30FE1E0B31708F0E0E0FE2BBF
:100650004A0DE1E04A1508F0E0E0AF2FA40F31E0C9
:10066000A41708F030E0E32B5E0D41E05E1508F0C2
:1006700040E0FE2FF50F31E0F51708F030E0432B96
:100680006D0D51E06D1508F050E0E42FE60F31E0FC
:10069000E61708F030E0532B7B0D41E07B1508F0A6
:1006A00040E0652F670F31E0671708F030E0432B1B
:1006B000890D51E0891508F050E0480F31E04817E6
:1006C00008F030E0532B890EF22ECB2EAA2EEF2EFF
:1006D000DE2EB62E942E850E0894611C711C269673
:1006E00086E06816710409F08CCD8FE785B980E14A
:1006F0008A95F1F781E0982F9A95F1F7982F9A95BE
:10070000F1F78A95F1F730991FC04E2D90E08D2DAD
:10071000805F21E08D1508F020E0392F380F91E03F
:10072000381708F090E0822F892B8B0D91E08B1504
:1007300008F090E0990D21E0991508F020E0E42EF2
:10074000D32EB82E992E820E32991FC04E2D90E0D6
:100750008D2D885F21E08D1508F020E0392F380FAE
:1007600091E0381708F090E0822F892B8B0D91E0F3
:100770008B1508F090E0990D21E0991508F020E024
:10078000E42ED32EB82E992E820E33991FC04E2DF3
:1007900090E08D2D8C5F21E08D1508F020E0392F41
:1007A000380F91E0381708F090E0822F892B8B0DDD
:1007B00091E08B1508F090E0990D21E0991508F073
:1007C00020E0E42ED32EB82E992E820E34991FC02D
:1007D0004E2D90E08D2D8E5F21E08D1508F020E0EC
:1007E000392F380F91E0381708F090E0822F892BCD
:1007F0008B0D91E08B1508F090E0990D21E0991593
:1008000008F020E0E42ED32EB82E992E820E3599D2
:100810001FC04E2D90E08D2D8F5F21E08D1508F0CB
:1008200020E0392F380F91E0381708F090E0822F40
:10083000892B8B0D91E08B1508F090E0990D21E04C
:10084000991508F020E0E42ED32EB82E992E820EB2
:10085000319921C08E2D805821E08E1508F020E0BE
:10086000482F91E0881708F090E0922B9D0D81E0D1
:100870009D1508F080E0382F3B0D81E03B1508F016
:1008800080E0890D21E0891508F020E0E42ED92EC2
:10089000B32E982E820E8FEF85B981E0982F9A950E
:1008A000F1F7982F9A95F1F78A95F1F724E0622EE7
:1008B000712CC5E2D0E091E0292E312C80E1482E48
:1008C0005524539429B1C101062C02C0880F991FE9
:1008D0000A94E2F78095206F82238BB9842D8A9544
:1008E000F1F7852D8A95F1F7852D8A95F1F7852DFC
:1008F0008A95F1F7309962C08E010B5F1F4F21E09E
:1009000030E040E050E060E070E080E090E00E9485
:10091000D4072F0DE1E02F1508F0E0E03C0DF1E0E9
:100920003C1508F0F0E0BE2FB30FE1E0B31708F07C
:10093000E0E0FE2B4A0DE1E04A1508F0E0E0AF2FC1
:10094000A40F31E0A41708F030E0E32B5E0D41E086
:100950005E1508F040E0FE2FF50F31E0F51708F0C6
:1009600030E0432B6D0D51E06D1508F050E0E42FA1
:10097000E60F31E0E61708F030E0532B7B0D41E045
:100980007B1508F040E0652F670F31E0671708F02E
:1009900030E0432B890D51E0891508F050E0480FF5
:1009A00031E0481708F030E0532B890EF22ECB2EA1
:1009B000AA2EEF2EDE2EB62E942E850E329962C010
:1009C0008E010C5F1F4F21E030E040E050E060E01E
:1009D00070E080E090E00E94D4072F0DE1E02F1539
:1009E00008F0E0E03C0DF1E03C1508F0F0E0BE2F2F
:1009F000B30FE1E0B31708F0E0E0FE2B4A0DE1E0B1
:100A00004A1508F0E0E0AF2FA40F31E0A41708F07A
:100A100030E0E32B5E0D41E05E1508F040E0FE2F74
:100A2000F50F31E0F51708F030E0432B6D0D51E084
:100A30006D1508F050E0E42FE60F31E0E61708F0FE
:100A400030E0532B7B0D41E07B1508F040E0652F33
:100A5000670F31E0671708F030E0432B890D51E054
:100A6000891508F050E0480F31E0481708F030E0F1
:100A7000532B890EF22ECB2EAA2EEF2EDE2EB62E63
:100A8000942E850E339962C08E010D5F1F4F21E0B9
:100A900030E040E050E060E070E080E090E00E94F4
:100AA000D4072F0DE1E02F1508F0E0E03C0DF1E058
:100AB0003C1508F0F0E0BE2FB30FE1E0B31708F0EB
:100AC000E0E0FE2B4A0DE1E04A1508F0E0E0AF2F30
:100AD000A40F31E0A41708F030E0E32B5E0D41E0F5
:100AE0005E1508F040E0FE2FF50F31E0F51708F035
:100AF00030E0432B6D0D51E06D1508F050E0E42F10
:100B0000E60F31E0E61708F030E0532B7B0D41E0B3
:100B10007B1508F040E0652F670F31E0671708F09C
:100B200030E0432B890D51E0891508F050E0480F63
:100B300031E0481708F030E0532B890EF22ECB2E0F
:100B4000AA2EEF2EDE2EB62E942E850E349962C07C
:100B50008E010E5F1F4F21E030E040E050E060E08A
:100B600070E080E090E00E94D4072F0DE1E02F15A7
:100B700008F0E0E03C0DF1E03C1508F0F0E0BE2F9D
:100B8000B30FE1E0B31708F0E0E0FE2B4A0DE1E01F
:100B90004A1508F0E0E0AF2FA40F31E0A41708F0E9
:100BA00030E0E32B5E0D41E05E1508F040E0FE2FE3
:100BB000F50F31E0F51708F030E0432B6D0D51E0F3
:100BC0006D1508F050E0E42FE60F31E0E61708F06D
:100BD00030E0532B7B0D41E07B1508F040E0652FA2
:100BE000670F31E0671708F030E0432B890D51E0C3
:100BF000891508F050E0480F31E0481708F030E060
:100C0000532B890EF22ECB2EAA2EEF2EDE2EB62ED1
:100C1000942E850E359962C08E010F5F1F4F21E023
:100C200030E040E050E060E070E080E090E00E9462
:100C3000D4072F0DE1E02F1508F0E0E03C0DF1E0C6
:100C40003C1508F0F0E0BE2FB30FE1E0B31708F059
:100C5000E0E0FE2B4A0DE1E04A1508F0E0E0AF2F9E
:100C6000A40F31E0A41708F030E0E32B5E0D41E063
:100C70005E1508F040E0FE2FF50F31E0F51708F0A3
:100C800030E0432B6D0D51E06D1508F050E0E42F7E
:100C9000E60F31E0E61708F030E0532B7B0D41E022
:100CA0007B1508F040E0652F670F31E0671708F00B
:100CB00030E0432B890D51E0891508F050E0480FD2
:100CC00031E0481708F030E0532B890EF22ECB2E7E
:100CD000AA2EEF2EDE2EB62E942E850E319960C0F0
:100CE00021E030E040E050E060E070E080E090E043
:100CF0000C2F0E94D4072F0DE1E02F1508F0E0E043
:100D00003C0DF1E03C1508F0F0E0BE2FB30FE1E040
:100D1000B31708F0E0E0FE2B4A0DE1E04A1508F0B9
:100D2000E0E0AF2FA40F31E0A41708F030E0E32B90
:100D30005E0D41E05E1508F040E0FE2FF50F31E05A
:100D4000F51708F030E0432B6D0D51E06D1508F0FC
:100D500050E0E42FE60F31E0E61708F030E0532BC7
:100D60007B0D41E07B1508F040E0652F670F31E017
:100D7000671708F030E0432B890D51E0891508F022
:100D800050E0480F31E0481708F030E0532B890E4F
:100D9000F22ECB2EAA2EEF2EDE2EB62E942E850E00
:100DA0000894611C711C269688E06816710409F08D
:100DB00089CDF0920101C0920201A0920301E0925C
:100DC0000401D0920501B092060190920701809231
:100DD000080189B1806F8BB9DF91CF911F910F917D
:100DE000FF90EF90DF90CF90BF90AF909F908F904B
:100DF0007F906F905F904F903F902F900895E1E625
:100E0000F0E090E8908310828FEF85B98FEB84B982
:100E100018B817B88CEF8BB988EF8AB91092C00058
:100E200088E18093C10086E08093C2001092C500E3
:100E30001092C40010BE90BF10927B0010927E00F2
:100E400010927C0083E080937A000895FF920F93C4
:100E50001F93CF93DF93F8940E94FF061092010135
:100E600010920201109203011092040110920501E8
:100E7000109206011092070110920801789481E007
:100E800080930001C0E0D0E068ECF62E8F2D8A95AB
:100E9000F1F70E94CA004A99F9CF8E010F5F1F4FE8
:100EA000CE010E945E00E801F1CFEF92FF920F9316
:100EB000DF93CF93CDB7DEB760970FB6F894DEBF60
:100EC0000FBECDBFA82F002309F461C07E01089496
:100ED000E11CF11C88E0F70111928A95E9F729835A
:100EE0003A834B835C836D837E83AF83988780E2F4
:100EF000801BE82FFF27E7FDF0954D815E816F8114
:100F00007885181684F01D861E861F86188A882705
:100F100099278E1B9F0B04C076956795579547952B
:100F20008A95D2F728C0202F332727FD3095DB0183
:100F3000CA01022E04C0B695A795979587950A9485
:100F4000D2F78D879E87AF87B88B04C0440F551F9B
:100F5000661F771FEA95D2F789819A81AB81BC81A0
:100F600004C0B695A795979587952A95D2F7482BF3
:100F7000592B6A2B7B2B49875A876B877C8729855E
:100F80003A854B855C856D857E85AF8598898A2FEE
:100F900060960FB6F894DEBF0FBECDBFCF91DF9144
:100FA0000F91FF90EF900895EF92FF920F93DF93D0
:100FB000CF93CDB7DEB760970FB6F894DEBF0FBE04
:100FC000CDBFA82F002309F461C07E010894E11C65
:100FD000F11C88E0F70111928A95E9F729833A8399
:100FE0004B835C836D837E83AF83988780E2801B15
:100FF000E82FFF27E7FDF09549815A816B817C81BD
:10100000181684F019861A861B861C86882799274D
:101010008E1B9F0B04C0440F551F661F771F8A95B8
:10102000D2F728C0202F332727FD3095DB01CA01D6
:10103000022E04C0880F991FAA1FBB1F0A94D2F763
:1010400089879A87AB87BC8704C076956795579543
:101050004795EA95D2F78D819E81AF81B88504C00E
:10106000880F991FAA1FBB1F2A95D2F7482B592B0F
:101070006A2B7B2B4D875E876F87788B29853A8516
:101080004B855C856D857E85AF8598898A2F6096B6
:101090000FB6F894DEBF0FBECDBFCF91DF910F9199
:0A10A000FF90EF900895F894FFCF41
:00000001FF
